{
  "contractName": "NFTokenMetadataEnumerableMock",
  "abi": [
    {
      "constant": true,
      "inputs": [
        {
          "name": "_interfaceID",
          "type": "bytes4"
        }
      ],
      "name": "supportsInterface",
      "outputs": [
        {
          "name": "",
          "type": "bool"
        }
      ],
      "payable": false,
      "stateMutability": "view",
      "type": "function"
    },
    {
      "constant": true,
      "inputs": [],
      "name": "name",
      "outputs": [
        {
          "name": "_name",
          "type": "string"
        }
      ],
      "payable": false,
      "stateMutability": "view",
      "type": "function"
    },
    {
      "constant": true,
      "inputs": [
        {
          "name": "_tokenId",
          "type": "uint256"
        }
      ],
      "name": "getApproved",
      "outputs": [
        {
          "name": "",
          "type": "address"
        }
      ],
      "payable": false,
      "stateMutability": "view",
      "type": "function"
    },
    {
      "constant": false,
      "inputs": [
        {
          "name": "_approved",
          "type": "address"
        },
        {
          "name": "_tokenId",
          "type": "uint256"
        }
      ],
      "name": "approve",
      "outputs": [],
      "payable": false,
      "stateMutability": "nonpayable",
      "type": "function"
    },
    {
      "constant": true,
      "inputs": [],
      "name": "totalSupply",
      "outputs": [
        {
          "name": "",
          "type": "uint256"
        }
      ],
      "payable": false,
      "stateMutability": "view",
      "type": "function"
    },
    {
      "constant": false,
      "inputs": [
        {
          "name": "_from",
          "type": "address"
        },
        {
          "name": "_to",
          "type": "address"
        },
        {
          "name": "_tokenId",
          "type": "uint256"
        }
      ],
      "name": "transferFrom",
      "outputs": [],
      "payable": false,
      "stateMutability": "nonpayable",
      "type": "function"
    },
    {
      "constant": true,
      "inputs": [
        {
          "name": "_owner",
          "type": "address"
        },
        {
          "name": "_index",
          "type": "uint256"
        }
      ],
      "name": "tokenOfOwnerByIndex",
      "outputs": [
        {
          "name": "",
          "type": "uint256"
        }
      ],
      "payable": false,
      "stateMutability": "view",
      "type": "function"
    },
    {
      "constant": false,
      "inputs": [
        {
          "name": "_from",
          "type": "address"
        },
        {
          "name": "_to",
          "type": "address"
        },
        {
          "name": "_tokenId",
          "type": "uint256"
        }
      ],
      "name": "safeTransferFrom",
      "outputs": [],
      "payable": false,
      "stateMutability": "nonpayable",
      "type": "function"
    },
    {
      "constant": true,
      "inputs": [
        {
          "name": "_index",
          "type": "uint256"
        }
      ],
      "name": "tokenByIndex",
      "outputs": [
        {
          "name": "",
          "type": "uint256"
        }
      ],
      "payable": false,
      "stateMutability": "view",
      "type": "function"
    },
    {
      "constant": true,
      "inputs": [],
      "name": "ZERO_ADDRESS",
      "outputs": [
        {
          "name": "",
          "type": "string"
        }
      ],
      "payable": false,
      "stateMutability": "view",
      "type": "function"
    },
    {
      "constant": true,
      "inputs": [
        {
          "name": "_tokenId",
          "type": "uint256"
        }
      ],
      "name": "ownerOf",
      "outputs": [
        {
          "name": "_owner",
          "type": "address"
        }
      ],
      "payable": false,
      "stateMutability": "view",
      "type": "function"
    },
    {
      "constant": true,
      "inputs": [
        {
          "name": "_owner",
          "type": "address"
        }
      ],
      "name": "balanceOf",
      "outputs": [
        {
          "name": "",
          "type": "uint256"
        }
      ],
      "payable": false,
      "stateMutability": "view",
      "type": "function"
    },
    {
      "constant": true,
      "inputs": [],
      "name": "NOT_OWNER",
      "outputs": [
        {
          "name": "",
          "type": "string"
        }
      ],
      "payable": false,
      "stateMutability": "view",
      "type": "function"
    },
    {
      "constant": true,
      "inputs": [],
      "name": "owner",
      "outputs": [
        {
          "name": "",
          "type": "address"
        }
      ],
      "payable": false,
      "stateMutability": "view",
      "type": "function"
    },
    {
      "constant": true,
      "inputs": [],
      "name": "symbol",
      "outputs": [
        {
          "name": "_symbol",
          "type": "string"
        }
      ],
      "payable": false,
      "stateMutability": "view",
      "type": "function"
    },
    {
      "constant": false,
      "inputs": [
        {
          "name": "_operator",
          "type": "address"
        },
        {
          "name": "_approved",
          "type": "bool"
        }
      ],
      "name": "setApprovalForAll",
      "outputs": [],
      "payable": false,
      "stateMutability": "nonpayable",
      "type": "function"
    },
    {
      "constant": false,
      "inputs": [
        {
          "name": "_from",
          "type": "address"
        },
        {
          "name": "_to",
          "type": "address"
        },
        {
          "name": "_tokenId",
          "type": "uint256"
        },
        {
          "name": "_data",
          "type": "bytes"
        }
      ],
      "name": "safeTransferFrom",
      "outputs": [],
      "payable": false,
      "stateMutability": "nonpayable",
      "type": "function"
    },
    {
      "constant": true,
      "inputs": [
        {
          "name": "_tokenId",
          "type": "uint256"
        }
      ],
      "name": "tokenURI",
      "outputs": [
        {
          "name": "",
          "type": "string"
        }
      ],
      "payable": false,
      "stateMutability": "view",
      "type": "function"
    },
    {
      "constant": true,
      "inputs": [
        {
          "name": "_owner",
          "type": "address"
        },
        {
          "name": "_operator",
          "type": "address"
        }
      ],
      "name": "isApprovedForAll",
      "outputs": [
        {
          "name": "",
          "type": "bool"
        }
      ],
      "payable": false,
      "stateMutability": "view",
      "type": "function"
    },
    {
      "constant": false,
      "inputs": [
        {
          "name": "_newOwner",
          "type": "address"
        }
      ],
      "name": "transferOwnership",
      "outputs": [],
      "payable": false,
      "stateMutability": "nonpayable",
      "type": "function"
    },
    {
      "inputs": [
        {
          "name": "_name",
          "type": "string"
        },
        {
          "name": "_symbol",
          "type": "string"
        }
      ],
      "payable": false,
      "stateMutability": "nonpayable",
      "type": "constructor"
    },
    {
      "anonymous": false,
      "inputs": [
        {
          "indexed": true,
          "name": "previousOwner",
          "type": "address"
        },
        {
          "indexed": true,
          "name": "newOwner",
          "type": "address"
        }
      ],
      "name": "OwnershipTransferred",
      "type": "event"
    },
    {
      "anonymous": false,
      "inputs": [
        {
          "indexed": true,
          "name": "_from",
          "type": "address"
        },
        {
          "indexed": true,
          "name": "_to",
          "type": "address"
        },
        {
          "indexed": true,
          "name": "_tokenId",
          "type": "uint256"
        }
      ],
      "name": "Transfer",
      "type": "event"
    },
    {
      "anonymous": false,
      "inputs": [
        {
          "indexed": true,
          "name": "_owner",
          "type": "address"
        },
        {
          "indexed": true,
          "name": "_approved",
          "type": "address"
        },
        {
          "indexed": true,
          "name": "_tokenId",
          "type": "uint256"
        }
      ],
      "name": "Approval",
      "type": "event"
    },
    {
      "anonymous": false,
      "inputs": [
        {
          "indexed": true,
          "name": "_owner",
          "type": "address"
        },
        {
          "indexed": true,
          "name": "_operator",
          "type": "address"
        },
        {
          "indexed": false,
          "name": "_approved",
          "type": "bool"
        }
      ],
      "name": "ApprovalForAll",
      "type": "event"
    },
    {
      "constant": false,
      "inputs": [
        {
          "name": "_to",
          "type": "address"
        },
        {
          "name": "_tokenId",
          "type": "uint256"
        },
        {
          "name": "_uri",
          "type": "string"
        }
      ],
      "name": "mint",
      "outputs": [],
      "payable": false,
      "stateMutability": "nonpayable",
      "type": "function"
    },
    {
      "constant": false,
      "inputs": [
        {
          "name": "_tokenId",
          "type": "uint256"
        }
      ],
      "name": "burn",
      "outputs": [],
      "payable": false,
      "stateMutability": "nonpayable",
      "type": "function"
    }
  ],
  "bytecode": "0x60806040523480156200001157600080fd5b506040516200193f3803806200193f833981018060405260408110156200003757600080fd5b8101908080516401000000008111156200005057600080fd5b820160208101848111156200006457600080fd5b81516401000000008111828201871017156200007f57600080fd5b505092919060200180516401000000008111156200009c57600080fd5b82016020810184811115620000b057600080fd5b8151640100000000811182820187101715620000cb57600080fd5b5050600060208181527f67be87c3ff9960ca1e9cfac5cab2ff4747269cf9ed20c9b7306235ac35a491c5805460ff1990811660019081179092557ff7815fccbf112960a73756e185887fedcb9fc64ca0a16cc5923b7960ed78080080548216831790557f77b7bbe0e49b76487c9476b5db3354cf5270619d0037ccb899c2a4c4a75b431880548216831790557f5b5e139f000000000000000000000000000000000000000000000000000000009093527f9562381dfbc2d8b8b66e765249f330164b73e329e5f01670660643571d1974df805490931617909155600c80546001600160a01b031916331790558551919450620001cf935060099250850190620001ee565b508051620001e590600a906020840190620001ee565b50505062000293565b828054600181600116156101000203166002900490600052602060002090601f016020900481019282601f106200023157805160ff191683800117855562000261565b8280016001018555821562000261579182015b828111156200026157825182559160200191906001019062000244565b506200026f92915062000273565b5090565b6200029091905b808211156200026f57600081556001016200027a565b90565b61169c80620002a36000396000f3fe608060405234801561001057600080fd5b50600436106101425760003560e01c80636352211e116100b8578063a22cb4651161007c578063a22cb465146103b5578063b88d4fde146103e3578063c87b56dd14610473578063d3fc986414610490578063e985e9c514610515578063f2fde38b1461054357610142565b80636352211e1461035a57806370a082311461037757806371d78b121461039d5780638da5cb5b146103a557806395d89b41146103ad57610142565b806323b872dd1161010a57806323b872dd146102805780632f745c59146102b657806342842e0e146102e257806342966c68146103185780634f6ccce714610335578063538ba4f91461035257610142565b806301ffc9a71461014757806306fdde0314610182578063081812fc146101ff578063095ea7b31461023857806318160ddd14610266575b600080fd5b61016e6004803603602081101561015d57600080fd5b50356001600160e01b031916610569565b604080519115158252519081900360200190f35b61018a61058c565b6040805160208082528351818301528351919283929083019185019080838360005b838110156101c45781810151838201526020016101ac565b50505050905090810190601f1680156101f15780820380516001836020036101000a031916815260200191505b509250505060405180910390f35b61021c6004803603602081101561021557600080fd5b5035610622565b604080516001600160a01b039092168252519081900360200190f35b6102646004803603604081101561024e57600080fd5b506001600160a01b038135169060200135610662565b005b61026e610761565b60408051918252519081900360200190f35b6102646004803603606081101561029657600080fd5b506001600160a01b03813581169160208101359091169060400135610768565b61026e600480360360408110156102cc57600080fd5b506001600160a01b03813516906020013561084e565b610264600480360360608110156102f857600080fd5b506001600160a01b038135811691602081013590911690604001356108a9565b6102646004803603602081101561032e57600080fd5b50356108c9565b61026e6004803603602081101561034b57600080fd5b5035610990565b61018a6109c0565b61021c6004803603602081101561037057600080fd5b50356109e5565b61026e6004803603602081101561038d57600080fd5b50356001600160a01b0316610a07565b61018a610a2b565b61021c610a50565b61018a610a5f565b610264600480360360408110156103cb57600080fd5b506001600160a01b0381351690602001351515610ac0565b610264600480360360808110156103f957600080fd5b6001600160a01b0382358116926020810135909116916040820135919081019060808101606082013564010000000081111561043457600080fd5b82018360208201111561044657600080fd5b8035906020019184600183028401116401000000008311171561046857600080fd5b509092509050610b2e565b61018a6004803603602081101561048957600080fd5b5035610b77565b610264600480360360608110156104a657600080fd5b6001600160a01b03823516916020810135918101906060810160408201356401000000008111156104d657600080fd5b8201836020820111156104e857600080fd5b8035906020019184600183028401116401000000008311171561050a57600080fd5b509092509050610c3d565b61016e6004803603604081101561052b57600080fd5b506001600160a01b0381358116916020013516610d0b565b6102646004803603602081101561055957600080fd5b50356001600160a01b0316610d39565b6001600160e01b0319811660009081526020819052604090205460ff165b919050565b60098054604080516020601f60026000196101006001881615020190951694909404938401819004810282018101909252828152606093909290918301828280156106185780601f106105ed57610100808354040283529160200191610618565b820191906000526020600020905b8154815290600101906020018083116105fb57829003601f168201915b5050505050905090565b60008181526001602052604081205482906001600160a01b031661064557600080fd5b50506000908152600260205260409020546001600160a01b031690565b60008181526001602052604090205481906001600160a01b0316338114806106ad57506001600160a01b038116600090815260046020908152604080832033845290915290205460ff165b6106b657600080fd5b60008381526001602052604090205483906001600160a01b03166106d957600080fd5b6000848152600160205260409020546001600160a01b0390811690861681141561070257600080fd5b60008581526002602052604080822080546001600160a01b0319166001600160a01b038a811691821790925591518893918516917f8c5be1e5ebec7d5bd14f71427d1e84f3dd0314c0f7b2291e5b200ac8c7c3b92591a4505050505050565b6005545b90565b60008181526001602052604090205481906001600160a01b0316338114806107a657506000828152600260205260409020546001600160a01b031633145b806107d457506001600160a01b038116600090815260046020908152604080832033845290915290205460ff165b6107dd57600080fd5b60008381526001602052604090205483906001600160a01b031661080057600080fd5b6000848152600160205260409020546001600160a01b03908116908716811461082857600080fd5b6001600160a01b03861661083b57600080fd5b6108458686610e8c565b50505050505050565b6001600160a01b038216600090815260076020526040812054821061087257600080fd5b6001600160a01b038316600090815260076020526040902080548390811061089657fe5b9060005260206000200154905092915050565b6108c483838360405180602001604052806000815250610f07565b505050565b600c546040805180820190915260068152600160d01b65303138303031026020820152906001600160a01b0316331461098357604051600160e51b62461bcd0281526004018080602001828103825283818151815260200191508051906020019080838360005b83811015610948578181015183820152602001610930565b50505050905090810190601f1680156109755780820380516001836020036101000a031916815260200191505b509250505060405180910390fd5b5061098d81611121565b50565b60055460009082106109a157600080fd5b600582815481106109ae57fe5b90600052602060002001549050919050565b604051806040016040528060068152602001600160d11b6518189c1818190281525081565b6000818152600160205260409020546001600160a01b03168061058757600080fd5b60006001600160a01b038216610a1c57600080fd5b610a2582611168565b92915050565b604051806040016040528060068152602001600160d01b653031383030310281525081565b600c546001600160a01b031681565b600a8054604080516020601f60026000196101006001881615020190951694909404938401819004810282018101909252828152606093909290918301828280156106185780601f106105ed57610100808354040283529160200191610618565b3360008181526004602090815260408083206001600160a01b03871680855290835292819020805460ff1916861515908117909155815190815290519293927f17307eab39ab6107e8899845ad3d59bd9653f200f220920489ca2b5937696c31929181900390910190a35050565b610b7085858585858080601f016020809104026020016040519081016040528093929190818152602001838380828437600092019190915250610f0792505050565b5050505050565b60008181526001602052604090205460609082906001600160a01b0316610b9d57600080fd5b6000838152600b602090815260409182902080548351601f600260001961010060018616150201909316929092049182018490048402810184019094528084529091830182828015610c305780601f10610c0557610100808354040283529160200191610c30565b820191906000526020600020905b815481529060010190602001808311610c1357829003601f168201915b5050505050915050919050565b600c546040805180820190915260068152600160d01b65303138303031026020820152906001600160a01b03163314610cba57604051600160e51b62461bcd028152602060048201818152835160248401528351909283926044909101919085019080838360008315610948578181015183820152602001610930565b50610cc58484611183565b610d058383838080601f0160208091040260200160405190810160405280939291908181526020018383808284376000920191909152506111d192505050565b50505050565b6001600160a01b03918216600090815260046020908152604080832093909416825291909152205460ff1690565b600c546040805180820190915260068152600160d01b65303138303031026020820152906001600160a01b03163314610db657604051600160e51b62461bcd028152602060048201818152835160248401528351909283926044909101919085019080838360008315610948578181015183820152602001610930565b506040805180820190915260068152600160d11b6518189c1818190260208201526001600160a01b038216610e2f57604051600160e51b62461bcd028152602060048201818152835160248401528351909283926044909101919085019080838360008315610948578181015183820152602001610930565b50600c546040516001600160a01b038084169216907f8be0079c531659141344cd1fd0a4f28419497f9722a3daafe3b4186f6b6457e090600090a3600c80546001600160a01b0319166001600160a01b0392909216919091179055565b6000818152600160205260409020546001600160a01b0316610ead82611213565b610eb7818361124e565b610ec18383611366565b81836001600160a01b0316826001600160a01b03167fddf252ad1be2c89b69c2b068fc378daa952ba7f163c4a11628f55a4df523b3ef60405160405180910390a4505050565b60008281526001602052604090205482906001600160a01b031633811480610f4557506000828152600260205260409020546001600160a01b031633145b80610f7357506001600160a01b038116600090815260046020908152604080832033845290915290205460ff165b610f7c57600080fd5b60008481526001602052604090205484906001600160a01b0316610f9f57600080fd5b6000858152600160205260409020546001600160a01b039081169088168114610fc757600080fd5b6001600160a01b038716610fda57600080fd5b610fe48787610e8c565b610ff6876001600160a01b03166113e0565b1561111757604051600160e11b630a85bd0102815233600482018181526001600160a01b038b81166024850152604484018a9052608060648501908152895160848601528951600095928d169463150b7a029490938f938e938e939260a4019060208501908083838e5b83811015611078578181015183820152602001611060565b50505050905090810190601f1680156110a55780820380516001836020036101000a031916815260200191505b5095505050505050602060405180830381600087803b1580156110c757600080fd5b505af11580156110db573d6000803e3d6000fd5b505050506040513d60208110156110f157600080fd5b505190506001600160e01b03198116600160e11b630a85bd01021461111557600080fd5b505b5050505050505050565b61112a816113e6565b6000818152600b6020526040902054600260001961010060018416150201909116041561098d576000818152600b6020526040812061098d91611574565b6001600160a01b031660009081526007602052604090205490565b61118d828261146e565b60058054600181019091557f036b6384b5eca791c62761152d0c79bb0604c104a5fb6f4eb0703f3154bb3db081018290556000918252600660205260409091205550565b60008281526001602052604090205482906001600160a01b03166111f457600080fd5b6000838152600b602090815260409091208351610d05928501906115b8565b6000818152600260205260409020546001600160a01b03161561098d57600090815260026020526040902080546001600160a01b0319169055565b6000818152600160205260409020546001600160a01b0383811691161461127457600080fd5b600081815260016020908152604080832080546001600160a01b031916905560088252808320546001600160a01b03861684526007909252909120546000190180821461133d576001600160a01b03841660009081526007602052604081208054839081106112df57fe5b906000526020600020015490508060076000876001600160a01b03166001600160a01b03168152602001908152602001600020848154811061131d57fe5b600091825260208083209091019290925591825260089052604090208290555b6001600160a01b0384166000908152600760205260409020805490610b70906000198301611636565b6000818152600160205260409020546001600160a01b03161561138857600080fd5b600081815260016020818152604080842080546001600160a01b039097166001600160a01b03199097168717905594835260078152848320805492830181558352808320820184905592825260089092529190912055565b3b151590565b6113ef816114e9565b6000818152600660205260408120546005805491926000198301929091908390811061141757fe5b90600052602060002001549050806005848154811061143257fe5b6000918252602090912001556005805490611451906000198301611636565b506000908152600660205260408082209390935592835250812055565b6001600160a01b03821661148157600080fd5b6000818152600160205260409020546001600160a01b0316156114a357600080fd5b6114ad8282611366565b60405181906001600160a01b038416906000907fddf252ad1be2c89b69c2b068fc378daa952ba7f163c4a11628f55a4df523b3ef908290a45050565b60008181526001602052604090205481906001600160a01b031661150c57600080fd5b6000828152600160205260409020546001600160a01b031661152d83611213565b611537818461124e565b60405183906000906001600160a01b038416907fddf252ad1be2c89b69c2b068fc378daa952ba7f163c4a11628f55a4df523b3ef908390a4505050565b50805460018160011615610100020316600290046000825580601f1061159a575061098d565b601f01602090049060005260206000209081019061098d9190611656565b828054600181600116156101000203166002900490600052602060002090601f016020900481019282601f106115f957805160ff1916838001178555611626565b82800160010185558215611626579182015b8281111561162657825182559160200191906001019061160b565b50611632929150611656565b5090565b8154818355818111156108c4576000838152602090206108c49181019083015b61076591905b80821115611632576000815560010161165c56fea165627a7a72305820f018c828cd5ed4e7e8e7edf4bd3c82ec3310724018ed9769fa30f48ff3fdbaa90029",
  "source": "pragma solidity 0.5.6;\n\nimport \"../tokens/nf-token-metadata.sol\";\nimport \"../tokens/nf-token-enumerable.sol\";\nimport \"../ownership/ownable.sol\";\n\n/**\n * @dev This is an example contract implementation of NFToken with enumerable and metadata\n * extensions.\n */\ncontract NFTokenMetadataEnumerableMock is\n  NFTokenEnumerable,\n  NFTokenMetadata,\n  Ownable\n{\n\n  /**\n   * @dev Contract constructor.\n   * @param _name A descriptive name for a collection of NFTs.\n   * @param _symbol An abbreviated name for NFTokens.\n   */\n  constructor(\n    string memory _name,\n    string memory _symbol\n  )\n    public\n  {\n    nftName = _name;\n    nftSymbol = _symbol;\n  }\n\n  /**\n   * @dev Mints a new NFT.\n   * @param _to The address that will own the minted NFT.\n   * @param _tokenId of the NFT to be minted by the msg.sender.\n   * @param _uri String representing RFC 3986 URI.\n   */\n  function mint(\n    address _to,\n    uint256 _tokenId,\n    string calldata _uri\n  )\n    external\n    onlyOwner\n  {\n    super._mint(_to, _tokenId);\n    super._setTokenUri(_tokenId, _uri);\n  }\n\n  /**\n   * @dev Removes a NFT from owner.\n   * @param _tokenId Which NFT we want to remove.\n   */\n  function burn(\n    uint256 _tokenId\n  )\n    external\n    onlyOwner\n  {\n    super._burn(_tokenId);\n  }\n\n}\n",
  "sourcePath": "/home/cenz/dev/dapps/dist-market/contracts/mocks/nf-token-metadata-enumerable-mock.sol",
  "compiler": {
    "name": "solc",
    "version": "0.5.6+commit.b259423e.Emscripten.clang"
  },
  "schemaVersion": "3.0.11",
  "updatedAt": "2019-06-18T23:41:03.022Z",
  "devdoc": {
    "details": "This is an example contract implementation of NFToken with enumerable and metadata extensions.",
    "methods": {
      "approve(address,uint256)": {
        "details": "Set or reaffirm the approved address for an NFT. This function can be changed to payable.",
        "params": {
          "_approved": "Address to be approved for the given NFT ID.",
          "_tokenId": "ID of the token to be approved."
        }
      },
      "balanceOf(address)": {
        "details": "Returns the number of NFTs owned by `_owner`. NFTs assigned to the zero address are considered invalid, and this function throws for queries about the zero address.",
        "params": {
          "_owner": "Address for whom to query the balance."
        },
        "return": "Balance of _owner."
      },
      "burn(uint256)": {
        "details": "Removes a NFT from owner.",
        "params": {
          "_tokenId": "Which NFT we want to remove."
        }
      },
      "constructor": {
        "details": "Contract constructor.",
        "params": {
          "_name": "A descriptive name for a collection of NFTs.",
          "_symbol": "An abbreviated name for NFTokens."
        }
      },
      "getApproved(uint256)": {
        "details": "Get the approved address for a single NFT.",
        "params": {
          "_tokenId": "ID of the NFT to query the approval of."
        },
        "return": "Address that _tokenId is approved for. "
      },
      "isApprovedForAll(address,address)": {
        "details": "Checks if `_operator` is an approved operator for `_owner`.",
        "params": {
          "_operator": "The address that acts on behalf of the owner.",
          "_owner": "The address that owns the NFTs."
        },
        "return": "True if approved for all, false otherwise."
      },
      "mint(address,uint256,string)": {
        "details": "Mints a new NFT.",
        "params": {
          "_to": "The address that will own the minted NFT.",
          "_tokenId": "of the NFT to be minted by the msg.sender.",
          "_uri": "String representing RFC 3986 URI."
        }
      },
      "name()": {
        "details": "Returns a descriptive name for a collection of NFTokens.",
        "return": "Representing name. "
      },
      "ownerOf(uint256)": {
        "details": "Returns the address of the owner of the NFT. NFTs assigned to zero address are considered invalid, and queries about them do throw.",
        "params": {
          "_tokenId": "The identifier for an NFT."
        },
        "return": "Address of _tokenId owner."
      },
      "safeTransferFrom(address,address,uint256)": {
        "details": "Transfers the ownership of an NFT from one address to another address. This function can be changed to payable.",
        "params": {
          "_from": "The current owner of the NFT.",
          "_to": "The new owner.",
          "_tokenId": "The NFT to transfer."
        }
      },
      "safeTransferFrom(address,address,uint256,bytes)": {
        "details": "Transfers the ownership of an NFT from one address to another address. This function can be changed to payable.",
        "params": {
          "_data": "Additional data with no specified format, sent in call to `_to`.",
          "_from": "The current owner of the NFT.",
          "_to": "The new owner.",
          "_tokenId": "The NFT to transfer."
        }
      },
      "setApprovalForAll(address,bool)": {
        "details": "Enables or disables approval for a third party (\"operator\") to manage all of `msg.sender`'s assets. It also emits the ApprovalForAll event.",
        "params": {
          "_approved": "True if the operators is approved, false to revoke approval.",
          "_operator": "Address to add to the set of authorized operators."
        }
      },
      "supportsInterface(bytes4)": {
        "details": "Function to check which interfaces are suported by this contract.",
        "params": {
          "_interfaceID": "Id of the interface."
        },
        "return": "True if _interfaceID is supported, false otherwise."
      },
      "symbol()": {
        "details": "Returns an abbreviated name for NFTokens.",
        "return": "Representing symbol. "
      },
      "tokenByIndex(uint256)": {
        "details": "Returns NFT ID by its index.",
        "params": {
          "_index": "A counter less than `totalSupply()`."
        },
        "return": "Token id."
      },
      "tokenOfOwnerByIndex(address,uint256)": {
        "details": "returns the n-th NFT ID from a list of owner's tokens.",
        "params": {
          "_index": "Index number representing n-th token in owner's list of tokens.",
          "_owner": "Token owner's address."
        },
        "return": "Token id."
      },
      "tokenURI(uint256)": {
        "details": "A distinct URI (RFC 3986) for a given NFT.",
        "params": {
          "_tokenId": "Id for which we want uri."
        },
        "return": "URI of _tokenId."
      },
      "totalSupply()": {
        "details": "Returns the count of all existing NFTokens.",
        "return": "Total supply of NFTs."
      },
      "transferFrom(address,address,uint256)": {
        "details": "Throws unless `msg.sender` is the current owner, an authorized operator, or the approved address for this NFT. Throws if `_from` is not the current owner. Throws if `_to` is the zero address. Throws if `_tokenId` is not a valid NFT. This function can be changed to payable.",
        "params": {
          "_from": "The current owner of the NFT.",
          "_to": "The new owner.",
          "_tokenId": "The NFT to transfer."
        }
      },
      "transferOwnership(address)": {
        "details": "Allows the current owner to transfer control of the contract to a newOwner.",
        "params": {
          "_newOwner": "The address to transfer ownership to."
        }
      }
    }
  },
  "userdoc": {
    "methods": {
      "approve(address,uint256)": {
        "notice": "The zero address indicates there is no approved address. Throws unless `msg.sender` is the current NFT owner, or an authorized operator of the current owner."
      },
      "getApproved(uint256)": {
        "notice": "Throws if `_tokenId` is not a valid NFT."
      },
      "safeTransferFrom(address,address,uint256)": {
        "notice": "This works identically to the other function with an extra data parameter, except this function just sets data to \"\""
      },
      "safeTransferFrom(address,address,uint256,bytes)": {
        "notice": "Throws unless `msg.sender` is the current owner, an authorized operator, or the approved address for this NFT. Throws if `_from` is not the current owner. Throws if `_to` is the zero address. Throws if `_tokenId` is not a valid NFT. When transfer is complete, this function checks if `_to` is a smart contract (code size > 0). If so, it calls  `onERC721Received` on `_to` and throws if the return value is not  `bytes4(keccak256(\"onERC721Received(address,uint256,bytes)\"))`."
      },
      "setApprovalForAll(address,bool)": {
        "notice": "This works even if sender doesn't own any tokens at the time."
      },
      "transferFrom(address,address,uint256)": {
        "notice": "The caller is responsible to confirm that `_to` is capable of receiving NFTs or else they maybe be permanently lost."
      }
    }
  }
}