{
  "contractName": "NFTokenMock",
  "abi": [
    {
      "constant": true,
      "inputs": [
        {
          "name": "_interfaceID",
          "type": "bytes4"
        }
      ],
      "name": "supportsInterface",
      "outputs": [
        {
          "name": "",
          "type": "bool"
        }
      ],
      "payable": false,
      "stateMutability": "view",
      "type": "function"
    },
    {
      "constant": true,
      "inputs": [
        {
          "name": "_tokenId",
          "type": "uint256"
        }
      ],
      "name": "getApproved",
      "outputs": [
        {
          "name": "",
          "type": "address"
        }
      ],
      "payable": false,
      "stateMutability": "view",
      "type": "function"
    },
    {
      "constant": false,
      "inputs": [
        {
          "name": "_approved",
          "type": "address"
        },
        {
          "name": "_tokenId",
          "type": "uint256"
        }
      ],
      "name": "approve",
      "outputs": [],
      "payable": false,
      "stateMutability": "nonpayable",
      "type": "function"
    },
    {
      "constant": false,
      "inputs": [
        {
          "name": "_from",
          "type": "address"
        },
        {
          "name": "_to",
          "type": "address"
        },
        {
          "name": "_tokenId",
          "type": "uint256"
        }
      ],
      "name": "transferFrom",
      "outputs": [],
      "payable": false,
      "stateMutability": "nonpayable",
      "type": "function"
    },
    {
      "constant": false,
      "inputs": [
        {
          "name": "_from",
          "type": "address"
        },
        {
          "name": "_to",
          "type": "address"
        },
        {
          "name": "_tokenId",
          "type": "uint256"
        }
      ],
      "name": "safeTransferFrom",
      "outputs": [],
      "payable": false,
      "stateMutability": "nonpayable",
      "type": "function"
    },
    {
      "constant": true,
      "inputs": [],
      "name": "ZERO_ADDRESS",
      "outputs": [
        {
          "name": "",
          "type": "string"
        }
      ],
      "payable": false,
      "stateMutability": "view",
      "type": "function"
    },
    {
      "constant": true,
      "inputs": [
        {
          "name": "_tokenId",
          "type": "uint256"
        }
      ],
      "name": "ownerOf",
      "outputs": [
        {
          "name": "_owner",
          "type": "address"
        }
      ],
      "payable": false,
      "stateMutability": "view",
      "type": "function"
    },
    {
      "constant": true,
      "inputs": [
        {
          "name": "_owner",
          "type": "address"
        }
      ],
      "name": "balanceOf",
      "outputs": [
        {
          "name": "",
          "type": "uint256"
        }
      ],
      "payable": false,
      "stateMutability": "view",
      "type": "function"
    },
    {
      "constant": true,
      "inputs": [],
      "name": "NOT_OWNER",
      "outputs": [
        {
          "name": "",
          "type": "string"
        }
      ],
      "payable": false,
      "stateMutability": "view",
      "type": "function"
    },
    {
      "constant": true,
      "inputs": [],
      "name": "owner",
      "outputs": [
        {
          "name": "",
          "type": "address"
        }
      ],
      "payable": false,
      "stateMutability": "view",
      "type": "function"
    },
    {
      "constant": false,
      "inputs": [
        {
          "name": "_operator",
          "type": "address"
        },
        {
          "name": "_approved",
          "type": "bool"
        }
      ],
      "name": "setApprovalForAll",
      "outputs": [],
      "payable": false,
      "stateMutability": "nonpayable",
      "type": "function"
    },
    {
      "constant": false,
      "inputs": [
        {
          "name": "_from",
          "type": "address"
        },
        {
          "name": "_to",
          "type": "address"
        },
        {
          "name": "_tokenId",
          "type": "uint256"
        },
        {
          "name": "_data",
          "type": "bytes"
        }
      ],
      "name": "safeTransferFrom",
      "outputs": [],
      "payable": false,
      "stateMutability": "nonpayable",
      "type": "function"
    },
    {
      "constant": true,
      "inputs": [
        {
          "name": "_owner",
          "type": "address"
        },
        {
          "name": "_operator",
          "type": "address"
        }
      ],
      "name": "isApprovedForAll",
      "outputs": [
        {
          "name": "",
          "type": "bool"
        }
      ],
      "payable": false,
      "stateMutability": "view",
      "type": "function"
    },
    {
      "constant": false,
      "inputs": [
        {
          "name": "_newOwner",
          "type": "address"
        }
      ],
      "name": "transferOwnership",
      "outputs": [],
      "payable": false,
      "stateMutability": "nonpayable",
      "type": "function"
    },
    {
      "anonymous": false,
      "inputs": [
        {
          "indexed": true,
          "name": "previousOwner",
          "type": "address"
        },
        {
          "indexed": true,
          "name": "newOwner",
          "type": "address"
        }
      ],
      "name": "OwnershipTransferred",
      "type": "event"
    },
    {
      "anonymous": false,
      "inputs": [
        {
          "indexed": true,
          "name": "_from",
          "type": "address"
        },
        {
          "indexed": true,
          "name": "_to",
          "type": "address"
        },
        {
          "indexed": true,
          "name": "_tokenId",
          "type": "uint256"
        }
      ],
      "name": "Transfer",
      "type": "event"
    },
    {
      "anonymous": false,
      "inputs": [
        {
          "indexed": true,
          "name": "_owner",
          "type": "address"
        },
        {
          "indexed": true,
          "name": "_approved",
          "type": "address"
        },
        {
          "indexed": true,
          "name": "_tokenId",
          "type": "uint256"
        }
      ],
      "name": "Approval",
      "type": "event"
    },
    {
      "anonymous": false,
      "inputs": [
        {
          "indexed": true,
          "name": "_owner",
          "type": "address"
        },
        {
          "indexed": true,
          "name": "_operator",
          "type": "address"
        },
        {
          "indexed": false,
          "name": "_approved",
          "type": "bool"
        }
      ],
      "name": "ApprovalForAll",
      "type": "event"
    },
    {
      "constant": false,
      "inputs": [
        {
          "name": "_to",
          "type": "address"
        },
        {
          "name": "_tokenId",
          "type": "uint256"
        }
      ],
      "name": "mint",
      "outputs": [],
      "payable": false,
      "stateMutability": "nonpayable",
      "type": "function"
    }
  ],
  "bytecode": "0x6080604052600060208190527f67be87c3ff9960ca1e9cfac5cab2ff4747269cf9ed20c9b7306235ac35a491c5805460ff1990811660019081179092557f80ac58cd000000000000000000000000000000000000000000000000000000009092527ff7815fccbf112960a73756e185887fedcb9fc64ca0a16cc5923b7960ed7808008054909216179055600580546001600160a01b03191633179055610ebf806100aa6000396000f3fe608060405234801561001057600080fd5b50600436106100f55760003560e01c80636352211e11610097578063a22cb46511610066578063a22cb46514610316578063b88d4fde14610344578063e985e9c5146103d4578063f2fde38b14610402576100f5565b80636352211e146102b157806370a08231146102ce57806371d78b12146103065780638da5cb5b1461030e576100f5565b806323b872dd116100d357806323b872dd1461019c57806340c10f19146101d257806342842e0e146101fe578063538ba4f914610234576100f5565b806301ffc9a7146100fa578063081812fc14610135578063095ea7b31461016e575b600080fd5b6101216004803603602081101561011057600080fd5b50356001600160e01b031916610428565b604080519115158252519081900360200190f35b6101526004803603602081101561014b57600080fd5b503561044b565b604080516001600160a01b039092168252519081900360200190f35b61019a6004803603604081101561018457600080fd5b506001600160a01b03813516906020013561048b565b005b61019a600480360360608110156101b257600080fd5b506001600160a01b0381358116916020810135909116906040013561058a565b61019a600480360360408110156101e857600080fd5b506001600160a01b038135169060200135610670565b61019a6004803603606081101561021457600080fd5b506001600160a01b03813581169160208101359091169060400135610739565b61023c610759565b6040805160208082528351818301528351919283929083019185019080838360005b8381101561027657818101518382015260200161025e565b50505050905090810190601f1680156102a35780820380516001836020036101000a031916815260200191505b509250505060405180910390f35b610152600480360360208110156102c757600080fd5b503561077e565b6102f4600480360360208110156102e457600080fd5b50356001600160a01b03166107a0565b60408051918252519081900360200190f35b61023c6107c4565b6101526107e9565b61019a6004803603604081101561032c57600080fd5b506001600160a01b03813516906020013515156107f8565b61019a6004803603608081101561035a57600080fd5b6001600160a01b0382358116926020810135909116916040820135919081019060808101606082013564010000000081111561039557600080fd5b8201836020820111156103a757600080fd5b803590602001918460018302840111640100000000831117156103c957600080fd5b509092509050610866565b610121600480360360408110156103ea57600080fd5b506001600160a01b03813581169160200135166108af565b61019a6004803603602081101561041857600080fd5b50356001600160a01b03166108dd565b6001600160e01b0319811660009081526020819052604090205460ff165b919050565b60008181526001602052604081205482906001600160a01b031661046e57600080fd5b50506000908152600260205260409020546001600160a01b031690565b60008181526001602052604090205481906001600160a01b0316338114806104d657506001600160a01b038116600090815260046020908152604080832033845290915290205460ff165b6104df57600080fd5b60008381526001602052604090205483906001600160a01b031661050257600080fd5b6000848152600160205260409020546001600160a01b0390811690861681141561052b57600080fd5b60008581526002602052604080822080546001600160a01b0319166001600160a01b038a811691821790925591518893918516917f8c5be1e5ebec7d5bd14f71427d1e84f3dd0314c0f7b2291e5b200ac8c7c3b92591a4505050505050565b60008181526001602052604090205481906001600160a01b0316338114806105c857506000828152600260205260409020546001600160a01b031633145b806105f657506001600160a01b038116600090815260046020908152604080832033845290915290205460ff165b6105ff57600080fd5b60008381526001602052604090205483906001600160a01b031661062257600080fd5b6000848152600160205260409020546001600160a01b03908116908716811461064a57600080fd5b6001600160a01b03861661065d57600080fd5b6106678686610a30565b50505050505050565b6005546040805180820190915260068152600160d01b65303138303031026020820152906001600160a01b0316331461072a57604051600160e51b62461bcd0281526004018080602001828103825283818151815260200191508051906020019080838360005b838110156106ef5781810151838201526020016106d7565b50505050905090810190601f16801561071c5780820380516001836020036101000a031916815260200191505b509250505060405180910390fd5b506107358282610aab565b5050565b61075483838360405180602001604052806000815250610b26565b505050565b604051806040016040528060068152602001600160d11b6518189c1818190281525081565b6000818152600160205260409020546001600160a01b03168061044657600080fd5b60006001600160a01b0382166107b557600080fd5b6107be82610d40565b92915050565b604051806040016040528060068152602001600160d01b653031383030310281525081565b6005546001600160a01b031681565b3360008181526004602090815260408083206001600160a01b03871680855290835292819020805460ff1916861515908117909155815190815290519293927f17307eab39ab6107e8899845ad3d59bd9653f200f220920489ca2b5937696c31929181900390910190a35050565b6108a885858585858080601f016020809104026020016040519081016040528093929190818152602001838380828437600092019190915250610b2692505050565b5050505050565b6001600160a01b03918216600090815260046020908152604080832093909416825291909152205460ff1690565b6005546040805180820190915260068152600160d01b65303138303031026020820152906001600160a01b0316331461095a57604051600160e51b62461bcd0281526020600482018181528351602484015283519092839260449091019190850190808383600083156106ef5781810151838201526020016106d7565b506040805180820190915260068152600160d11b6518189c1818190260208201526001600160a01b0382166109d357604051600160e51b62461bcd0281526020600482018181528351602484015283519092839260449091019190850190808383600083156106ef5781810151838201526020016106d7565b506005546040516001600160a01b038084169216907f8be0079c531659141344cd1fd0a4f28419497f9722a3daafe3b4186f6b6457e090600090a3600580546001600160a01b0319166001600160a01b0392909216919091179055565b6000818152600160205260409020546001600160a01b0316610a5182610d5b565b610a5b8183610d98565b610a658383610dfa565b81836001600160a01b0316826001600160a01b03167fddf252ad1be2c89b69c2b068fc378daa952ba7f163c4a11628f55a4df523b3ef60405160405180910390a4505050565b6001600160a01b038216610abe57600080fd5b6000818152600160205260409020546001600160a01b031615610ae057600080fd5b610aea8282610dfa565b60405181906001600160a01b038416906000907fddf252ad1be2c89b69c2b068fc378daa952ba7f163c4a11628f55a4df523b3ef908290a45050565b60008281526001602052604090205482906001600160a01b031633811480610b6457506000828152600260205260409020546001600160a01b031633145b80610b9257506001600160a01b038116600090815260046020908152604080832033845290915290205460ff165b610b9b57600080fd5b60008481526001602052604090205484906001600160a01b0316610bbe57600080fd5b6000858152600160205260409020546001600160a01b039081169088168114610be657600080fd5b6001600160a01b038716610bf957600080fd5b610c038787610a30565b610c15876001600160a01b0316610e7d565b15610d3657604051600160e11b630a85bd0102815233600482018181526001600160a01b038b81166024850152604484018a9052608060648501908152895160848601528951600095928d169463150b7a029490938f938e938e939260a4019060208501908083838e5b83811015610c97578181015183820152602001610c7f565b50505050905090810190601f168015610cc45780820380516001836020036101000a031916815260200191505b5095505050505050602060405180830381600087803b158015610ce657600080fd5b505af1158015610cfa573d6000803e3d6000fd5b505050506040513d6020811015610d1057600080fd5b505190506001600160e01b03198116600160e11b630a85bd010214610d3457600080fd5b505b5050505050505050565b6001600160a01b031660009081526003602052604090205490565b6000818152600260205260409020546001600160a01b031615610d9557600081815260026020526040902080546001600160a01b03191690555b50565b6000818152600160205260409020546001600160a01b03838116911614610dbe57600080fd5b6001600160a01b0390911660009081526003602090815260408083208054600019019055928252600190522080546001600160a01b0319169055565b6000818152600160205260409020546001600160a01b031615610e1c57600080fd5b600081815260016020818152604080842080546001600160a01b0319166001600160a01b0388169081179091558452600390915290912054610e5d91610e83565b6001600160a01b0390921660009081526003602052604090209190915550565b3b151590565b818101828110156107be57600080fdfea165627a7a72305820df67aa1487a2ba00d02a7ca14aa1d751a4ad422c27351c06022a4853fef1965c0029",
  "source": "pragma solidity 0.5.6;\n\nimport \"../../contracts/tokens/nf-token.sol\";\nimport \"../ownership/ownable.sol\";\n\n/**\n * @dev This is an example contract implementation of NFToken.\n */\ncontract NFTokenMock is\n  NFToken,\n  Ownable\n{\n\n  /**\n   * @dev Mints a new NFT.\n   * @param _to The address that will own the minted NFT.\n   * @param _tokenId of the NFT to be minted by the msg.sender.\n   */\n  function mint(\n    address _to,\n    uint256 _tokenId\n  )\n    external\n    onlyOwner\n  {\n    super._mint(_to, _tokenId);\n  }\n\n}\n",
  "sourcePath": "/home/cenz/dev/dapps/dist-market/contracts/mocks/nf-token-mock.sol",
  "compiler": {
    "name": "solc",
    "version": "0.5.6+commit.b259423e.Emscripten.clang"
  },
  "schemaVersion": "3.0.11",
  "updatedAt": "2019-06-18T23:41:03.026Z",
  "devdoc": {
    "details": "This is an example contract implementation of NFToken.",
    "methods": {
      "approve(address,uint256)": {
        "details": "Set or reaffirm the approved address for an NFT. This function can be changed to payable.",
        "params": {
          "_approved": "Address to be approved for the given NFT ID.",
          "_tokenId": "ID of the token to be approved."
        }
      },
      "balanceOf(address)": {
        "details": "Returns the number of NFTs owned by `_owner`. NFTs assigned to the zero address are considered invalid, and this function throws for queries about the zero address.",
        "params": {
          "_owner": "Address for whom to query the balance."
        },
        "return": "Balance of _owner."
      },
      "getApproved(uint256)": {
        "details": "Get the approved address for a single NFT.",
        "params": {
          "_tokenId": "ID of the NFT to query the approval of."
        },
        "return": "Address that _tokenId is approved for. "
      },
      "isApprovedForAll(address,address)": {
        "details": "Checks if `_operator` is an approved operator for `_owner`.",
        "params": {
          "_operator": "The address that acts on behalf of the owner.",
          "_owner": "The address that owns the NFTs."
        },
        "return": "True if approved for all, false otherwise."
      },
      "mint(address,uint256)": {
        "details": "Mints a new NFT.",
        "params": {
          "_to": "The address that will own the minted NFT.",
          "_tokenId": "of the NFT to be minted by the msg.sender."
        }
      },
      "ownerOf(uint256)": {
        "details": "Returns the address of the owner of the NFT. NFTs assigned to zero address are considered invalid, and queries about them do throw.",
        "params": {
          "_tokenId": "The identifier for an NFT."
        },
        "return": "Address of _tokenId owner."
      },
      "safeTransferFrom(address,address,uint256)": {
        "details": "Transfers the ownership of an NFT from one address to another address. This function can be changed to payable.",
        "params": {
          "_from": "The current owner of the NFT.",
          "_to": "The new owner.",
          "_tokenId": "The NFT to transfer."
        }
      },
      "safeTransferFrom(address,address,uint256,bytes)": {
        "details": "Transfers the ownership of an NFT from one address to another address. This function can be changed to payable.",
        "params": {
          "_data": "Additional data with no specified format, sent in call to `_to`.",
          "_from": "The current owner of the NFT.",
          "_to": "The new owner.",
          "_tokenId": "The NFT to transfer."
        }
      },
      "setApprovalForAll(address,bool)": {
        "details": "Enables or disables approval for a third party (\"operator\") to manage all of `msg.sender`'s assets. It also emits the ApprovalForAll event.",
        "params": {
          "_approved": "True if the operators is approved, false to revoke approval.",
          "_operator": "Address to add to the set of authorized operators."
        }
      },
      "supportsInterface(bytes4)": {
        "details": "Function to check which interfaces are suported by this contract.",
        "params": {
          "_interfaceID": "Id of the interface."
        },
        "return": "True if _interfaceID is supported, false otherwise."
      },
      "transferFrom(address,address,uint256)": {
        "details": "Throws unless `msg.sender` is the current owner, an authorized operator, or the approved address for this NFT. Throws if `_from` is not the current owner. Throws if `_to` is the zero address. Throws if `_tokenId` is not a valid NFT. This function can be changed to payable.",
        "params": {
          "_from": "The current owner of the NFT.",
          "_to": "The new owner.",
          "_tokenId": "The NFT to transfer."
        }
      },
      "transferOwnership(address)": {
        "details": "Allows the current owner to transfer control of the contract to a newOwner.",
        "params": {
          "_newOwner": "The address to transfer ownership to."
        }
      }
    }
  },
  "userdoc": {
    "methods": {
      "approve(address,uint256)": {
        "notice": "The zero address indicates there is no approved address. Throws unless `msg.sender` is the current NFT owner, or an authorized operator of the current owner."
      },
      "getApproved(uint256)": {
        "notice": "Throws if `_tokenId` is not a valid NFT."
      },
      "safeTransferFrom(address,address,uint256)": {
        "notice": "This works identically to the other function with an extra data parameter, except this function just sets data to \"\""
      },
      "safeTransferFrom(address,address,uint256,bytes)": {
        "notice": "Throws unless `msg.sender` is the current owner, an authorized operator, or the approved address for this NFT. Throws if `_from` is not the current owner. Throws if `_to` is the zero address. Throws if `_tokenId` is not a valid NFT. When transfer is complete, this function checks if `_to` is a smart contract (code size > 0). If so, it calls  `onERC721Received` on `_to` and throws if the return value is not  `bytes4(keccak256(\"onERC721Received(address,uint256,bytes)\"))`."
      },
      "setApprovalForAll(address,bool)": {
        "notice": "This works even if sender doesn't own any tokens at the time."
      },
      "transferFrom(address,address,uint256)": {
        "notice": "The caller is responsible to confirm that `_to` is capable of receiving NFTs or else they maybe be permanently lost."
      }
    }
  }
}