{
  "contractName": "NFTokenEnumerableMock",
  "abi": [
    {
      "constant": true,
      "inputs": [
        {
          "name": "_interfaceID",
          "type": "bytes4"
        }
      ],
      "name": "supportsInterface",
      "outputs": [
        {
          "name": "",
          "type": "bool"
        }
      ],
      "payable": false,
      "stateMutability": "view",
      "type": "function"
    },
    {
      "constant": true,
      "inputs": [
        {
          "name": "_tokenId",
          "type": "uint256"
        }
      ],
      "name": "getApproved",
      "outputs": [
        {
          "name": "",
          "type": "address"
        }
      ],
      "payable": false,
      "stateMutability": "view",
      "type": "function"
    },
    {
      "constant": false,
      "inputs": [
        {
          "name": "_approved",
          "type": "address"
        },
        {
          "name": "_tokenId",
          "type": "uint256"
        }
      ],
      "name": "approve",
      "outputs": [],
      "payable": false,
      "stateMutability": "nonpayable",
      "type": "function"
    },
    {
      "constant": true,
      "inputs": [],
      "name": "totalSupply",
      "outputs": [
        {
          "name": "",
          "type": "uint256"
        }
      ],
      "payable": false,
      "stateMutability": "view",
      "type": "function"
    },
    {
      "constant": false,
      "inputs": [
        {
          "name": "_from",
          "type": "address"
        },
        {
          "name": "_to",
          "type": "address"
        },
        {
          "name": "_tokenId",
          "type": "uint256"
        }
      ],
      "name": "transferFrom",
      "outputs": [],
      "payable": false,
      "stateMutability": "nonpayable",
      "type": "function"
    },
    {
      "constant": true,
      "inputs": [
        {
          "name": "_owner",
          "type": "address"
        },
        {
          "name": "_index",
          "type": "uint256"
        }
      ],
      "name": "tokenOfOwnerByIndex",
      "outputs": [
        {
          "name": "",
          "type": "uint256"
        }
      ],
      "payable": false,
      "stateMutability": "view",
      "type": "function"
    },
    {
      "constant": false,
      "inputs": [
        {
          "name": "_from",
          "type": "address"
        },
        {
          "name": "_to",
          "type": "address"
        },
        {
          "name": "_tokenId",
          "type": "uint256"
        }
      ],
      "name": "safeTransferFrom",
      "outputs": [],
      "payable": false,
      "stateMutability": "nonpayable",
      "type": "function"
    },
    {
      "constant": true,
      "inputs": [
        {
          "name": "_index",
          "type": "uint256"
        }
      ],
      "name": "tokenByIndex",
      "outputs": [
        {
          "name": "",
          "type": "uint256"
        }
      ],
      "payable": false,
      "stateMutability": "view",
      "type": "function"
    },
    {
      "constant": true,
      "inputs": [],
      "name": "ZERO_ADDRESS",
      "outputs": [
        {
          "name": "",
          "type": "string"
        }
      ],
      "payable": false,
      "stateMutability": "view",
      "type": "function"
    },
    {
      "constant": true,
      "inputs": [
        {
          "name": "_tokenId",
          "type": "uint256"
        }
      ],
      "name": "ownerOf",
      "outputs": [
        {
          "name": "_owner",
          "type": "address"
        }
      ],
      "payable": false,
      "stateMutability": "view",
      "type": "function"
    },
    {
      "constant": true,
      "inputs": [
        {
          "name": "_owner",
          "type": "address"
        }
      ],
      "name": "balanceOf",
      "outputs": [
        {
          "name": "",
          "type": "uint256"
        }
      ],
      "payable": false,
      "stateMutability": "view",
      "type": "function"
    },
    {
      "constant": true,
      "inputs": [],
      "name": "NOT_OWNER",
      "outputs": [
        {
          "name": "",
          "type": "string"
        }
      ],
      "payable": false,
      "stateMutability": "view",
      "type": "function"
    },
    {
      "constant": true,
      "inputs": [],
      "name": "owner",
      "outputs": [
        {
          "name": "",
          "type": "address"
        }
      ],
      "payable": false,
      "stateMutability": "view",
      "type": "function"
    },
    {
      "constant": false,
      "inputs": [
        {
          "name": "_operator",
          "type": "address"
        },
        {
          "name": "_approved",
          "type": "bool"
        }
      ],
      "name": "setApprovalForAll",
      "outputs": [],
      "payable": false,
      "stateMutability": "nonpayable",
      "type": "function"
    },
    {
      "constant": false,
      "inputs": [
        {
          "name": "_from",
          "type": "address"
        },
        {
          "name": "_to",
          "type": "address"
        },
        {
          "name": "_tokenId",
          "type": "uint256"
        },
        {
          "name": "_data",
          "type": "bytes"
        }
      ],
      "name": "safeTransferFrom",
      "outputs": [],
      "payable": false,
      "stateMutability": "nonpayable",
      "type": "function"
    },
    {
      "constant": true,
      "inputs": [
        {
          "name": "_owner",
          "type": "address"
        },
        {
          "name": "_operator",
          "type": "address"
        }
      ],
      "name": "isApprovedForAll",
      "outputs": [
        {
          "name": "",
          "type": "bool"
        }
      ],
      "payable": false,
      "stateMutability": "view",
      "type": "function"
    },
    {
      "constant": false,
      "inputs": [
        {
          "name": "_newOwner",
          "type": "address"
        }
      ],
      "name": "transferOwnership",
      "outputs": [],
      "payable": false,
      "stateMutability": "nonpayable",
      "type": "function"
    },
    {
      "anonymous": false,
      "inputs": [
        {
          "indexed": true,
          "name": "previousOwner",
          "type": "address"
        },
        {
          "indexed": true,
          "name": "newOwner",
          "type": "address"
        }
      ],
      "name": "OwnershipTransferred",
      "type": "event"
    },
    {
      "anonymous": false,
      "inputs": [
        {
          "indexed": true,
          "name": "_from",
          "type": "address"
        },
        {
          "indexed": true,
          "name": "_to",
          "type": "address"
        },
        {
          "indexed": true,
          "name": "_tokenId",
          "type": "uint256"
        }
      ],
      "name": "Transfer",
      "type": "event"
    },
    {
      "anonymous": false,
      "inputs": [
        {
          "indexed": true,
          "name": "_owner",
          "type": "address"
        },
        {
          "indexed": true,
          "name": "_approved",
          "type": "address"
        },
        {
          "indexed": true,
          "name": "_tokenId",
          "type": "uint256"
        }
      ],
      "name": "Approval",
      "type": "event"
    },
    {
      "anonymous": false,
      "inputs": [
        {
          "indexed": true,
          "name": "_owner",
          "type": "address"
        },
        {
          "indexed": true,
          "name": "_operator",
          "type": "address"
        },
        {
          "indexed": false,
          "name": "_approved",
          "type": "bool"
        }
      ],
      "name": "ApprovalForAll",
      "type": "event"
    },
    {
      "constant": false,
      "inputs": [
        {
          "name": "_to",
          "type": "address"
        },
        {
          "name": "_tokenId",
          "type": "uint256"
        }
      ],
      "name": "mint",
      "outputs": [],
      "payable": false,
      "stateMutability": "nonpayable",
      "type": "function"
    },
    {
      "constant": false,
      "inputs": [
        {
          "name": "_tokenId",
          "type": "uint256"
        }
      ],
      "name": "burn",
      "outputs": [],
      "payable": false,
      "stateMutability": "nonpayable",
      "type": "function"
    }
  ],
  "bytecode": "0x6080604052600060208190527f67be87c3ff9960ca1e9cfac5cab2ff4747269cf9ed20c9b7306235ac35a491c5805460ff1990811660019081179092557ff7815fccbf112960a73756e185887fedcb9fc64ca0a16cc5923b7960ed78080080548216831790557f780e9d63000000000000000000000000000000000000000000000000000000009092527f77b7bbe0e49b76487c9476b5db3354cf5270619d0037ccb899c2a4c4a75b43188054909216179055600980546001600160a01b031916331790556112ae806100d36000396000f3fe608060405234801561001057600080fd5b50600436106101215760003560e01c80634f6ccce7116100ad5780638da5cb5b116100715780638da5cb5b146103a8578063a22cb465146103b0578063b88d4fde146103de578063e985e9c51461046e578063f2fde38b1461049c57610121565b80634f6ccce7146102c3578063538ba4f9146102e05780636352211e1461035d57806370a082311461037a57806371d78b12146103a057610121565b806323b872dd116100f457806323b872dd146101e25780632f745c591461021857806340c10f191461024457806342842e0e1461027057806342966c68146102a657610121565b806301ffc9a714610126578063081812fc14610161578063095ea7b31461019a57806318160ddd146101c8575b600080fd5b61014d6004803603602081101561013c57600080fd5b50356001600160e01b0319166104c2565b604080519115158252519081900360200190f35b61017e6004803603602081101561017757600080fd5b50356104e5565b604080516001600160a01b039092168252519081900360200190f35b6101c6600480360360408110156101b057600080fd5b506001600160a01b038135169060200135610525565b005b6101d0610624565b60408051918252519081900360200190f35b6101c6600480360360608110156101f857600080fd5b506001600160a01b0381358116916020810135909116906040013561062b565b6101d06004803603604081101561022e57600080fd5b506001600160a01b038135169060200135610711565b6101c66004803603604081101561025a57600080fd5b506001600160a01b03813516906020013561076c565b6101c66004803603606081101561028657600080fd5b506001600160a01b03813581169160208101359091169060400135610835565b6101c6600480360360208110156102bc57600080fd5b5035610855565b6101d0600480360360208110156102d957600080fd5b50356108df565b6102e861090f565b6040805160208082528351818301528351919283929083019185019080838360005b8381101561032257818101518382015260200161030a565b50505050905090810190601f16801561034f5780820380516001836020036101000a031916815260200191505b509250505060405180910390f35b61017e6004803603602081101561037357600080fd5b5035610934565b6101d06004803603602081101561039057600080fd5b50356001600160a01b0316610956565b6102e861097a565b61017e61099f565b6101c6600480360360408110156103c657600080fd5b506001600160a01b03813516906020013515156109ae565b6101c6600480360360808110156103f457600080fd5b6001600160a01b0382358116926020810135909116916040820135919081019060808101606082013564010000000081111561042f57600080fd5b82018360208201111561044157600080fd5b8035906020019184600183028401116401000000008311171561046357600080fd5b509092509050610a1c565b61014d6004803603604081101561048457600080fd5b506001600160a01b0381358116916020013516610a65565b6101c6600480360360208110156104b257600080fd5b50356001600160a01b0316610a93565b6001600160e01b0319811660009081526020819052604090205460ff165b919050565b60008181526001602052604081205482906001600160a01b031661050857600080fd5b50506000908152600260205260409020546001600160a01b031690565b60008181526001602052604090205481906001600160a01b03163381148061057057506001600160a01b038116600090815260046020908152604080832033845290915290205460ff165b61057957600080fd5b60008381526001602052604090205483906001600160a01b031661059c57600080fd5b6000848152600160205260409020546001600160a01b039081169086168114156105c557600080fd5b60008581526002602052604080822080546001600160a01b0319166001600160a01b038a811691821790925591518893918516917f8c5be1e5ebec7d5bd14f71427d1e84f3dd0314c0f7b2291e5b200ac8c7c3b92591a4505050505050565b6005545b90565b60008181526001602052604090205481906001600160a01b03163381148061066957506000828152600260205260409020546001600160a01b031633145b8061069757506001600160a01b038116600090815260046020908152604080832033845290915290205460ff165b6106a057600080fd5b60008381526001602052604090205483906001600160a01b03166106c357600080fd5b6000848152600160205260409020546001600160a01b0390811690871681146106eb57600080fd5b6001600160a01b0386166106fe57600080fd5b6107088686610be6565b50505050505050565b6001600160a01b038216600090815260076020526040812054821061073557600080fd5b6001600160a01b038316600090815260076020526040902080548390811061075957fe5b9060005260206000200154905092915050565b6009546040805180820190915260068152600160d01b65303138303031026020820152906001600160a01b0316331461082657604051600160e51b62461bcd0281526004018080602001828103825283818151815260200191508051906020019080838360005b838110156107eb5781810151838201526020016107d3565b50505050905090810190601f1680156108185780820380516001836020036101000a031916815260200191505b509250505060405180910390fd5b506108318282610c61565b5050565b61085083838360405180602001604052806000815250610caf565b505050565b6009546040805180820190915260068152600160d01b65303138303031026020820152906001600160a01b031633146108d257604051600160e51b62461bcd0281526020600482018181528351602484015283519092839260449091019190850190808383600083156107eb5781810151838201526020016107d3565b506108dc81610ec9565b50565b60055460009082106108f057600080fd5b600582815481106108fd57fe5b90600052602060002001549050919050565b604051806040016040528060068152602001600160d11b6518189c1818190281525081565b6000818152600160205260409020546001600160a01b0316806104e057600080fd5b60006001600160a01b03821661096b57600080fd5b61097482610f51565b92915050565b604051806040016040528060068152602001600160d01b653031383030310281525081565b6009546001600160a01b031681565b3360008181526004602090815260408083206001600160a01b03871680855290835292819020805460ff1916861515908117909155815190815290519293927f17307eab39ab6107e8899845ad3d59bd9653f200f220920489ca2b5937696c31929181900390910190a35050565b610a5e85858585858080601f016020809104026020016040519081016040528093929190818152602001838380828437600092019190915250610caf92505050565b5050505050565b6001600160a01b03918216600090815260046020908152604080832093909416825291909152205460ff1690565b6009546040805180820190915260068152600160d01b65303138303031026020820152906001600160a01b03163314610b1057604051600160e51b62461bcd0281526020600482018181528351602484015283519092839260449091019190850190808383600083156107eb5781810151838201526020016107d3565b506040805180820190915260068152600160d11b6518189c1818190260208201526001600160a01b038216610b8957604051600160e51b62461bcd0281526020600482018181528351602484015283519092839260449091019190850190808383600083156107eb5781810151838201526020016107d3565b506009546040516001600160a01b038084169216907f8be0079c531659141344cd1fd0a4f28419497f9722a3daafe3b4186f6b6457e090600090a3600980546001600160a01b0319166001600160a01b0392909216919091179055565b6000818152600160205260409020546001600160a01b0316610c0782610f6c565b610c118183610fa7565b610c1b83836110bf565b81836001600160a01b0316826001600160a01b03167fddf252ad1be2c89b69c2b068fc378daa952ba7f163c4a11628f55a4df523b3ef60405160405180910390a4505050565b610c6b8282611139565b60058054600181019091557f036b6384b5eca791c62761152d0c79bb0604c104a5fb6f4eb0703f3154bb3db081018290556000918252600660205260409091205550565b60008281526001602052604090205482906001600160a01b031633811480610ced57506000828152600260205260409020546001600160a01b031633145b80610d1b57506001600160a01b038116600090815260046020908152604080832033845290915290205460ff165b610d2457600080fd5b60008481526001602052604090205484906001600160a01b0316610d4757600080fd5b6000858152600160205260409020546001600160a01b039081169088168114610d6f57600080fd5b6001600160a01b038716610d8257600080fd5b610d8c8787610be6565b610d9e876001600160a01b03166111b4565b15610ebf57604051600160e11b630a85bd0102815233600482018181526001600160a01b038b81166024850152604484018a9052608060648501908152895160848601528951600095928d169463150b7a029490938f938e938e939260a4019060208501908083838e5b83811015610e20578181015183820152602001610e08565b50505050905090810190601f168015610e4d5780820380516001836020036101000a031916815260200191505b5095505050505050602060405180830381600087803b158015610e6f57600080fd5b505af1158015610e83573d6000803e3d6000fd5b505050506040513d6020811015610e9957600080fd5b505190506001600160e01b03198116600160e11b630a85bd010214610ebd57600080fd5b505b5050505050505050565b610ed2816111ba565b60008181526006602052604081205460058054919260001983019290919083908110610efa57fe5b906000526020600020015490508060058481548110610f1557fe5b6000918252602090912001556005805490610f34906000198301611245565b506000908152600660205260408082209390935592835250812055565b6001600160a01b031660009081526007602052604090205490565b6000818152600260205260409020546001600160a01b0316156108dc57600090815260026020526040902080546001600160a01b0319169055565b6000818152600160205260409020546001600160a01b03838116911614610fcd57600080fd5b600081815260016020908152604080832080546001600160a01b031916905560088252808320546001600160a01b038616845260079092529091205460001901808214611096576001600160a01b038416600090815260076020526040812080548390811061103857fe5b906000526020600020015490508060076000876001600160a01b03166001600160a01b03168152602001908152602001600020848154811061107657fe5b600091825260208083209091019290925591825260089052604090208290555b6001600160a01b0384166000908152600760205260409020805490610a5e906000198301611245565b6000818152600160205260409020546001600160a01b0316156110e157600080fd5b600081815260016020818152604080842080546001600160a01b039097166001600160a01b03199097168717905594835260078152848320805492830181558352808320820184905592825260089092529190912055565b6001600160a01b03821661114c57600080fd5b6000818152600160205260409020546001600160a01b03161561116e57600080fd5b61117882826110bf565b60405181906001600160a01b038416906000907fddf252ad1be2c89b69c2b068fc378daa952ba7f163c4a11628f55a4df523b3ef908290a45050565b3b151590565b60008181526001602052604090205481906001600160a01b03166111dd57600080fd5b6000828152600160205260409020546001600160a01b03166111fe83610f6c565b6112088184610fa7565b60405183906000906001600160a01b038416907fddf252ad1be2c89b69c2b068fc378daa952ba7f163c4a11628f55a4df523b3ef908390a4505050565b8154818355818111156108505760008381526020902061085091810190830161062891905b8082111561127e576000815560010161126a565b509056fea165627a7a72305820aefa73f606d79fc62b1881410cf997cfe26d2a57b692f2afa06c71e7c62779440029",
  "source": "pragma solidity 0.5.6;\n\nimport \"../../contracts/tokens/nf-token-enumerable.sol\";\nimport \"../ownership/ownable.sol\";\n\n/**\n * @dev This is an example contract implementation of NFToken with enumerable extension.\n */\ncontract NFTokenEnumerableMock is\n  NFTokenEnumerable,\n  Ownable\n{\n\n  /**\n   * @dev Mints a new NFT.\n   * @param _to The address that will own the minted NFT.\n   * @param _tokenId of the NFT to be minted by the msg.sender.\n   */\n  function mint(\n    address _to,\n    uint256 _tokenId\n  )\n    external\n    onlyOwner\n  {\n    super._mint(_to, _tokenId);\n  }\n\n  /**\n   * @dev Removes a NFT from owner.\n   * @param _tokenId Which NFT we want to remove.\n   */\n  function burn(\n    uint256 _tokenId\n  )\n    external\n    onlyOwner\n  {\n    super._burn(_tokenId);\n  }\n\n}\n",
  "sourcePath": "/home/cenz/dev/dapps/dist-market/contracts/mocks/nf-token-enumerable-mock.sol",
  "compiler": {
    "name": "solc",
    "version": "0.5.6+commit.b259423e.Emscripten.clang"
  },
  "schemaVersion": "3.0.11",
  "updatedAt": "2019-06-18T23:41:03.021Z",
  "devdoc": {
    "details": "This is an example contract implementation of NFToken with enumerable extension.",
    "methods": {
      "approve(address,uint256)": {
        "details": "Set or reaffirm the approved address for an NFT. This function can be changed to payable.",
        "params": {
          "_approved": "Address to be approved for the given NFT ID.",
          "_tokenId": "ID of the token to be approved."
        }
      },
      "balanceOf(address)": {
        "details": "Returns the number of NFTs owned by `_owner`. NFTs assigned to the zero address are considered invalid, and this function throws for queries about the zero address.",
        "params": {
          "_owner": "Address for whom to query the balance."
        },
        "return": "Balance of _owner."
      },
      "burn(uint256)": {
        "details": "Removes a NFT from owner.",
        "params": {
          "_tokenId": "Which NFT we want to remove."
        }
      },
      "getApproved(uint256)": {
        "details": "Get the approved address for a single NFT.",
        "params": {
          "_tokenId": "ID of the NFT to query the approval of."
        },
        "return": "Address that _tokenId is approved for. "
      },
      "isApprovedForAll(address,address)": {
        "details": "Checks if `_operator` is an approved operator for `_owner`.",
        "params": {
          "_operator": "The address that acts on behalf of the owner.",
          "_owner": "The address that owns the NFTs."
        },
        "return": "True if approved for all, false otherwise."
      },
      "mint(address,uint256)": {
        "details": "Mints a new NFT.",
        "params": {
          "_to": "The address that will own the minted NFT.",
          "_tokenId": "of the NFT to be minted by the msg.sender."
        }
      },
      "ownerOf(uint256)": {
        "details": "Returns the address of the owner of the NFT. NFTs assigned to zero address are considered invalid, and queries about them do throw.",
        "params": {
          "_tokenId": "The identifier for an NFT."
        },
        "return": "Address of _tokenId owner."
      },
      "safeTransferFrom(address,address,uint256)": {
        "details": "Transfers the ownership of an NFT from one address to another address. This function can be changed to payable.",
        "params": {
          "_from": "The current owner of the NFT.",
          "_to": "The new owner.",
          "_tokenId": "The NFT to transfer."
        }
      },
      "safeTransferFrom(address,address,uint256,bytes)": {
        "details": "Transfers the ownership of an NFT from one address to another address. This function can be changed to payable.",
        "params": {
          "_data": "Additional data with no specified format, sent in call to `_to`.",
          "_from": "The current owner of the NFT.",
          "_to": "The new owner.",
          "_tokenId": "The NFT to transfer."
        }
      },
      "setApprovalForAll(address,bool)": {
        "details": "Enables or disables approval for a third party (\"operator\") to manage all of `msg.sender`'s assets. It also emits the ApprovalForAll event.",
        "params": {
          "_approved": "True if the operators is approved, false to revoke approval.",
          "_operator": "Address to add to the set of authorized operators."
        }
      },
      "supportsInterface(bytes4)": {
        "details": "Function to check which interfaces are suported by this contract.",
        "params": {
          "_interfaceID": "Id of the interface."
        },
        "return": "True if _interfaceID is supported, false otherwise."
      },
      "tokenByIndex(uint256)": {
        "details": "Returns NFT ID by its index.",
        "params": {
          "_index": "A counter less than `totalSupply()`."
        },
        "return": "Token id."
      },
      "tokenOfOwnerByIndex(address,uint256)": {
        "details": "returns the n-th NFT ID from a list of owner's tokens.",
        "params": {
          "_index": "Index number representing n-th token in owner's list of tokens.",
          "_owner": "Token owner's address."
        },
        "return": "Token id."
      },
      "totalSupply()": {
        "details": "Returns the count of all existing NFTokens.",
        "return": "Total supply of NFTs."
      },
      "transferFrom(address,address,uint256)": {
        "details": "Throws unless `msg.sender` is the current owner, an authorized operator, or the approved address for this NFT. Throws if `_from` is not the current owner. Throws if `_to` is the zero address. Throws if `_tokenId` is not a valid NFT. This function can be changed to payable.",
        "params": {
          "_from": "The current owner of the NFT.",
          "_to": "The new owner.",
          "_tokenId": "The NFT to transfer."
        }
      },
      "transferOwnership(address)": {
        "details": "Allows the current owner to transfer control of the contract to a newOwner.",
        "params": {
          "_newOwner": "The address to transfer ownership to."
        }
      }
    }
  },
  "userdoc": {
    "methods": {
      "approve(address,uint256)": {
        "notice": "The zero address indicates there is no approved address. Throws unless `msg.sender` is the current NFT owner, or an authorized operator of the current owner."
      },
      "getApproved(uint256)": {
        "notice": "Throws if `_tokenId` is not a valid NFT."
      },
      "safeTransferFrom(address,address,uint256)": {
        "notice": "This works identically to the other function with an extra data parameter, except this function just sets data to \"\""
      },
      "safeTransferFrom(address,address,uint256,bytes)": {
        "notice": "Throws unless `msg.sender` is the current owner, an authorized operator, or the approved address for this NFT. Throws if `_from` is not the current owner. Throws if `_to` is the zero address. Throws if `_tokenId` is not a valid NFT. When transfer is complete, this function checks if `_to` is a smart contract (code size > 0). If so, it calls  `onERC721Received` on `_to` and throws if the return value is not  `bytes4(keccak256(\"onERC721Received(address,uint256,bytes)\"))`."
      },
      "setApprovalForAll(address,bool)": {
        "notice": "This works even if sender doesn't own any tokens at the time."
      },
      "transferFrom(address,address,uint256)": {
        "notice": "The caller is responsible to confirm that `_to` is capable of receiving NFTs or else they maybe be permanently lost."
      }
    }
  }
}