{
  "contractName": "Ownable",
  "abi": [
    {
      "constant": true,
      "inputs": [],
      "name": "ZERO_ADDRESS",
      "outputs": [
        {
          "name": "",
          "type": "string"
        }
      ],
      "payable": false,
      "stateMutability": "view",
      "type": "function"
    },
    {
      "constant": true,
      "inputs": [],
      "name": "NOT_OWNER",
      "outputs": [
        {
          "name": "",
          "type": "string"
        }
      ],
      "payable": false,
      "stateMutability": "view",
      "type": "function"
    },
    {
      "constant": true,
      "inputs": [],
      "name": "owner",
      "outputs": [
        {
          "name": "",
          "type": "address"
        }
      ],
      "payable": false,
      "stateMutability": "view",
      "type": "function"
    },
    {
      "inputs": [],
      "payable": false,
      "stateMutability": "nonpayable",
      "type": "constructor"
    },
    {
      "anonymous": false,
      "inputs": [
        {
          "indexed": true,
          "name": "previousOwner",
          "type": "address"
        },
        {
          "indexed": true,
          "name": "newOwner",
          "type": "address"
        }
      ],
      "name": "OwnershipTransferred",
      "type": "event"
    },
    {
      "constant": false,
      "inputs": [
        {
          "name": "_newOwner",
          "type": "address"
        }
      ],
      "name": "transferOwnership",
      "outputs": [],
      "payable": false,
      "stateMutability": "nonpayable",
      "type": "function"
    }
  ],
  "bytecode": "0x608060405234801561001057600080fd5b50600080546001600160a01b03191633179055610336806100326000396000f3fe608060405234801561001057600080fd5b506004361061004c5760003560e01c8063538ba4f91461005157806371d78b12146100ce5780638da5cb5b146100d6578063f2fde38b146100fa575b600080fd5b610059610122565b6040805160208082528351818301528351919283929083019185019080838360005b8381101561009357818101518382015260200161007b565b50505050905090810190601f1680156100c05780820380516001836020036101000a031916815260200191505b509250505060405180910390f35b610059610147565b6100de61016c565b604080516001600160a01b039092168252519081900360200190f35b6101206004803603602081101561011057600080fd5b50356001600160a01b031661017b565b005b604051806040016040528060068152602001600160d11b6518189c1818190281525081565b604051806040016040528060068152602001600160d01b653031383030310281525081565b6000546001600160a01b031681565b6000546040805180820190915260068152600160d01b65303138303031026020820152906001600160a01b0316331461023557604051600160e51b62461bcd0281526004018080602001828103825283818151815260200191508051906020019080838360005b838110156101fa5781810151838201526020016101e2565b50505050905090810190601f1680156102275780820380516001836020036101000a031916815260200191505b509250505060405180910390fd5b506040805180820190915260068152600160d11b6518189c1818190260208201526001600160a01b0382166102ae57604051600160e51b62461bcd0281526020600482018181528351602484015283519092839260449091019190850190808383600083156101fa5781810151838201526020016101e2565b50600080546040516001600160a01b03808516939216917f8be0079c531659141344cd1fd0a4f28419497f9722a3daafe3b4186f6b6457e091a3600080546001600160a01b0319166001600160a01b039290921691909117905556fea165627a7a723058209010ab7268e6ba7dcfd195ad4505f098d9dd4fd02b43f1ac31e2ed26bed977610029",
  "source": "pragma solidity 0.5.6;\n\n/**\n * @dev The contract has an owner address, and provides basic authorization control whitch\n * simplifies the implementation of user permissions. This contract is based on the source code at:\n * https://github.com/OpenZeppelin/openzeppelin-solidity/blob/master/contracts/ownership/Ownable.sol\n */\ncontract Ownable\n{\n  \n  /**\n   * @dev Error constants.\n   */\n  string public constant NOT_OWNER = \"018001\";\n  string public constant ZERO_ADDRESS = \"018002\";\n\n  /**\n   * @dev Current owner address.\n   */\n  address public owner;\n\n  /**\n   * @dev An event which is triggered when the owner is changed.\n   * @param previousOwner The address of the previous owner.\n   * @param newOwner The address of the new owner.\n   */\n  event OwnershipTransferred(\n    address indexed previousOwner,\n    address indexed newOwner\n  );\n\n  /**\n   * @dev The constructor sets the original `owner` of the contract to the sender account.\n   */\n  constructor()\n    public\n  {\n    owner = msg.sender;\n  }\n\n  /**\n   * @dev Throws if called by any account other than the owner.\n   */\n  modifier onlyOwner()\n  {\n    require(msg.sender == owner, NOT_OWNER);\n    _;\n  }\n\n  /**\n   * @dev Allows the current owner to transfer control of the contract to a newOwner.\n   * @param _newOwner The address to transfer ownership to.\n   */\n  function transferOwnership(\n    address _newOwner\n  )\n    public\n    onlyOwner\n  {\n    require(_newOwner != address(0), ZERO_ADDRESS);\n    emit OwnershipTransferred(owner, _newOwner);\n    owner = _newOwner;\n  }\n\n}\n",
  "sourcePath": "/home/cenz/dev/dapps/dist-market/contracts/ownership/ownable.sol",
  "compiler": {
    "name": "solc",
    "version": "0.5.6+commit.b259423e.Emscripten.clang"
  },
  "schemaVersion": "3.0.11",
  "updatedAt": "2019-06-18T23:41:03.027Z",
  "devdoc": {
    "details": "The contract has an owner address, and provides basic authorization control whitch simplifies the implementation of user permissions. This contract is based on the source code at: https://github.com/OpenZeppelin/openzeppelin-solidity/blob/master/contracts/ownership/Ownable.sol",
    "methods": {
      "constructor": {
        "details": "The constructor sets the original `owner` of the contract to the sender account."
      },
      "transferOwnership(address)": {
        "details": "Allows the current owner to transfer control of the contract to a newOwner.",
        "params": {
          "_newOwner": "The address to transfer ownership to."
        }
      }
    }
  },
  "userdoc": {
    "methods": {}
  }
}