{
  "contractName": "SupportsInterface",
  "abi": [
    {
      "inputs": [],
      "payable": false,
      "stateMutability": "nonpayable",
      "type": "constructor"
    },
    {
      "constant": true,
      "inputs": [
        {
          "name": "_interfaceID",
          "type": "bytes4"
        }
      ],
      "name": "supportsInterface",
      "outputs": [
        {
          "name": "",
          "type": "bool"
        }
      ],
      "payable": false,
      "stateMutability": "view",
      "type": "function"
    }
  ],
  "bytecode": "0x608060405234801561001057600080fd5b507f01ffc9a70000000000000000000000000000000000000000000000000000000060009081526020527f67be87c3ff9960ca1e9cfac5cab2ff4747269cf9ed20c9b7306235ac35a491c5805460ff1916600117905560b0806100746000396000f3fe6080604052348015600f57600080fd5b506004361060285760003560e01c806301ffc9a714602d575b600080fd5b605160048036036020811015604157600080fd5b50356001600160e01b0319166065565b604080519115158252519081900360200190f35b6001600160e01b03191660009081526020819052604090205460ff169056fea165627a7a7230582076f96c9193442e7969dc284bd82554f12d80b05ae3d133496c8bc6d8fd1241800029",
  "source": "pragma solidity 0.5.6;\n\nimport \"./erc165.sol\";\n\n/**\n * @dev Implementation of standard for detect smart contract interfaces.\n */\ncontract SupportsInterface is\n  ERC165\n{\n\n  /**\n   * @dev Mapping of supported intefraces.\n   * @notice You must not set element 0xffffffff to true.\n   */\n  mapping(bytes4 => bool) internal supportedInterfaces;\n\n  /**\n   * @dev Contract constructor.\n   */\n  constructor()\n    public \n  {\n    supportedInterfaces[0x01ffc9a7] = true; // ERC165\n  }\n\n  /**\n   * @dev Function to check which interfaces are suported by this contract.\n   * @param _interfaceID Id of the interface.\n   * @return True if _interfaceID is supported, false otherwise.\n   */\n  function supportsInterface(\n    bytes4 _interfaceID\n  )\n    external\n    view\n    returns (bool)\n  {\n    return supportedInterfaces[_interfaceID];\n  }\n\n}\n",
  "sourcePath": "/home/cenz/dev/dapps/dist-market/contracts/utils/supports-interface.sol",
  "compiler": {
    "name": "solc",
    "version": "0.5.6+commit.b259423e.Emscripten.clang"
  },
  "schemaVersion": "3.0.11",
  "updatedAt": "2019-06-18T23:41:03.061Z",
  "devdoc": {
    "details": "Implementation of standard for detect smart contract interfaces.",
    "methods": {
      "constructor": {
        "details": "Contract constructor."
      },
      "supportsInterface(bytes4)": {
        "details": "Function to check which interfaces are suported by this contract.",
        "params": {
          "_interfaceID": "Id of the interface."
        },
        "return": "True if _interfaceID is supported, false otherwise."
      }
    }
  },
  "userdoc": {
    "methods": {}
  }
}